:060000000A128A110C280F
:10000800FE00030EF3000A08F4000A128A115928A8
:100018000A128A110F280A128A11DF200A128A117D
:10002800F800F601F70183010A128A118C28F601FB
:100038000830831603178800890183160313851671
:1000480087018801890106148614811315149514F3
:10005800161496148312031386010B108501880168
:100068008701831603130F088F3940388F000F1448
:100078009F131F129F12831203131F083F39403822
:100088009F001F08C3390C389F001F140330F50068
:10009800F50B4C284F288B170B17831203130C13DF
:1000A800831603130C178B150800831203130C1FF8
:1000B8005E285F286B281F0CF200720C0F39033A78
:1000C800031D672868286A281E0887000C130B1C64
:1000D8006E286F28852806187228732874286300EC
:1000E80083120313861879287A2884280708F200CF
:1000F8007208F00076080A128A11BD200A128A11C5
:100108000B1074088A00730E8300FE0E7E0E090021
:100118000A128A111B200A128A1176080A128A11F9
:10012800D2200A128A118312031388009F189D286F
:100138009E289F289F14113083120313A100393081
:10014800A000A00BA528A10BA528AA28031083129C
:100158000313091C03140318B228B62883120313C7
:100168000914B92883120313091091280A128A1155
:100178000C28F1007108831203178D0070088C0099
:10018800831603178C130C158B1355308D00AA306A
:100198008D008C140C110B108B170800F5007508D6
:1001A800831203178D00831603178C130C14831204
:0801B80003170C0808000134D4
:08400000FF3FFF3FFF3FFF3FC0
:04400E00D420FF3F7C
:00000001FF
